:04000000BDEF00F060
:100008004482F3CF2DF0F4CF2EF0F6CF2FF0F7CFB8
:1000180030F0F8CF31F0F5CF32F0F2BAF2A41DD0BB
:100028003C0E38183910D8B443BE0ED0435003E103
:100038004204D8A009D0000E0001D56F000ED46F7D
:10004800000EDB6F010EDA6F38C036F039C037F0BA
:10005800384A392AB7EC0AF0F29434503510D8B43B
:100068009DAA79D09EAA77D0AECF33F0770E3318F9
:10007800D8A419D041BE6BD0415004E1020E405CB7
:10008800D8A065D04006D8A041063AC00CF0200E92
:100098000D6E4028C6EC0DF0F10E026E7F0E036E59
:1000A80083EC11F054D0610E3318D8A419D03BBE9C
:1000B8004ED03B5004E1020E3A5CD8A048D03A0634
:1000C800D8A03B063A280C6E200E0D6E4050C6ECA8
:1000D8000DF0EB0E026E7F0E036E83EC11F037D03D
:1000E800730E3318D8A418D041BE06D041502FE162
:1000F800060E405CD8B02BD0404A412A3AC00CF0DA
:10010800200E0D6E4004C6EC0DF0E50E026E7F0E5B
:10011800036E83EC11F01BD0640E3318D8A417D0EB
:100128003BBE06D03B5013E1160E3A5CD8B00FD058
:100138003A4A3B2A3A040C6E200E0D6E4050C6EC2B
:100148000DF0C20E026E7F0E036E83EC11F0000EEE
:10015800356E010E346E32C0F5FF31C0F8FF30C085
:10016800F7FF2FC0F6FF2EC0F4FF2DC0F3FF449217
:1001780011001BEF0DF0000E936F000E926F92C0EE
:1001880060F093C061F0000E636F070E626F82EC3F
:1001980012F0060E6025D96E010E6121DA6EDF506D
:1001A800D8B456D092C060F093C061F0000E636F6F
:1001B800070E626F82EC12F0000E6025D96E010EF8
:1001C8006121DA6EDE2803E1DE28D8B41AD092C0A5
:1001D8007AF093C07BF0CFEC04F092C060F093C04B
:1001E80061F0000E636F070E626F82EC12F0000E72
:1001F8006025D96E010E6121DA6EDE06000EDD5A29
:1002080027D092C060F093C061F0000E636F070EB4
:10021800626F82EC12F0060E6025D96E010E612124
:10022800DA6E000EDF6E000E8F6F010E8E6F000EFD
:100238006B6F200E6C6F8E51A6EC0CF08E4B8F2BD3
:100248008FBFF5D78F5104E1070E8E5DD8A0EFD789
:10025800924B932B93BF93D7935104E1060E925D73
:10026800D8A08DD7BAC060F0BBC061F0000E636F34
:10027800070E626F82EC12F0000E6025D96E010E37
:100288006121DA6E130EDE18DE10D8A402D0010E3A
:10029800DD6FBAC060F0BBC061F0000E636F070E7F
:1002A800626F82EC12F0000E6025D96E010E61219A
:1002B800DA6E130EDE18DE10D8B405D0DD51D8B4CE
:1002C80002D0000EDD6FBAC060F0BBC061F0000E56
:1002D800636F070E626F82EC12F0000E6025D96E14
:1002E800010E6121DA6EBC51DE1832E1BD51DE1813
:1002F800D8A42ED0BBBF06D0BB512AE1050EBA5DEB
:10030800D8B026D0BA4BBB2BBAC060F0BBC061F0E6
:10031800000E636F070E626F82EC12F0060E602506
:10032800D96E010E6121DA6E010EDF6E9FEC10F0BE
:100338006CC06EF06DC06FF0000E716F0A0E706FBA
:10034800FFEC0DF0060E6E25BC6F000E6F21BD6F21
:10035800010123291BE12429D8A4120004EC07F089
:10036800000E916F010E906F000E6B6F200E6C6F78
:100378009051A6EC0CF0904B912B91BFF5D7915171
:1003880005E1070E905DD8B01200EED71200DC51DF
:10039800D8A4B0D0000EA36F000EA26F87D0A2C061
:1003A80060F0A3C061F0000E636F070E626F82EC0D
:1003B80012F0060E6025D96E010E6121DA6EDF504B
:1003C800D8B472D0A2C060F0A3C061F0000E636F11
:1003D800070E626F82EC12F0000E6025D96E010ED6
:1003E8006121DA6EDECF9BF0DDCF9CF0010E9B27FA
:1003F800000E9C233A509B1957E13B509C19D8A4F6
:1004080053D0A2C060F0A3C061F0000E636F070E66
:10041800626F82EC12F0020E6025D96E010E612126
:10042800DA6E4050DE5CDE50800A9D6F4150800AD3
:100438009D59D8B037D0A2C060F0A3C061F0000EBB
:10044800636F070E626F82EC12F0040E6025D96E9E
:10045800010E6121DA6EDECF9BF0DDCF9CF0A2C0E9
:1004680060F0A3C061F0000E636F070E626F82EC4C
:1004780012F0020E6025D96E010E6121DA6EDECF10
:100488009DF0DDCF9EF09B519D259F6F9C519E2135
:10049800A06F40509F5DA051800AA16F4150800A13
:1004A800A159D8A075EC10F0A24BA32BA251BA5DAC
:1004B800BB51800A9B6FA351800A9B59D8B06FD754
:1004C800010EA6259B6F000EA7219C6F3A509B1921
:1004D8001EE13B509C19D8A41AD04050A81917E126
:1004E8004150A919D8A413D0AC51D8B410D075EC88
:1004F80010F00DD0BE51385C9B6FBF5139589C6FBE
:10050800020E9B199C11D8A402D0000EDC6F010EBC
:10051800AD259B6F000EAE219C6F3A509B1940E1B0
:100528003B509C19D8A412004050AF1939E14150F2
:10053800B019D8A41200B151B211D8A406D0320E05
:10054800D827000ED923870E05D04B0ED827000ECA
:10055800D923960EBB6ED9BF0FD0F40ED85D010E0D
:10056800D959D8A009D0000ED56F000ED46F000E4F
:10057800DB6F010EDA6F1200140E746FD8C075F0BD
:10058800D9C076F0000E08EC09F01BEC0CF0AD2990
:100598006B6F200E6C6FAF51A6EC0CF03EEC11F0B7
:1005A800120030EC13F060C0D0F061C0D1F0CDEC97
:1005B80012F060C0CEF061C0CFF0DC51D8A408D0F2
:1005C8003AC06BF0230E6C6F4050A6EC0CF01AD0BA
:1005D800B451B511D8A40BD03AC06BF0200E6C6F93
:1005E8004050A6EC0CF0000EB56F010E0AD03AC0D0
:1005F8006BF0230E6C6F4050A6EC0CF0000EB56F3C
:10060800000EB46F80A604D0CC51CD11D8B406D05A
:10061800CFBF21D0020ECF5DD8A01DD03AC06BF05D
:10062800200E6C6F4050A6EC0CF041BE09D0415032
:1006380004E1020E405CD8A003D04006D8A04106D1
:100648003AC06BF0230E6C6F4050A6EC0CF0000E15
:10065800CD6F010ECC6F80B608D0CC51CD11D8B477
:1006680004D0000ECD6F000ECC6F80A404D0CA5108
:10067800CB11D8B407D0CFBF05D0CE29010ECF59A2
:10068800D8B01CD03AC06BF0200E6C6F4050A6EC6E
:100698000CF041BE06D0415006E1060E405CD8B0D1
:1006A80002D0404A412A3AC06BF0230E6C6F40508A
:1006B800A6EC0CF0000ECB6F010ECA6F80B408D008
:1006C800CA51CB11D8B404D0000ECB6F000ECA6F3C
:1006D80080A804D0C851C911D8B406D0D1BF20D041
:1006E800020ED15DD8A01CD03AC06BF0200E6C6F02
:1006F8004050A6EC0CF03BBE08D03B5003E13A0456
:10070800D8A003D03A06D8A03B063AC06BF0230E17
:100718006C6F4050A6EC0CF0000EC96F010EC86F4C
:1007280080B808D0C851C911D8B404D0000EC96F18
:10073800000EC86F80AA04D0C651C711D8B407D01C
:10074800D1BF05D0D029010ED159D8B01CD03AC09C
:100758006BF0200E6C6F4050A6EC0CF03BBE06D040
:100768003B5006E1160E3A5CD8B002D03A4A3B2A12
:100778003AC06BF0230E6C6F4050A6EC0CF0000EE4
:10078800C76F010EC66F80BA08D0C651C711D8B45A
:1007980004D0000EC76F000EC66F000E356E000E37
:1007A800346E120082A23DD0C451C511D8A439D0EC
:1007B800E3BF06D0E35135E1030EE25DD8B031D096
:1007C800E24BE32B030EE219E311D8A40AD0060E7C
:1007D800746FD70E756F7F0E766F000E20EC10F0D9
:1007E8001CD0020EE219E311D8A40AD0060E746FC9
:1007F800C90E756F7F0E766F000E20EC10F00DD0CD
:10080800E205E311D8A409D0060E746FDE0E756FE9
:100818007F0E766F000E20EC10F0000EC56F010EF3
:10082800C46F82B208D0C405C511D8A404D0000E84
:10083800C56F000EC46F82A83BD0C251C311D8B493
:10084800E3BF36D0E35103E1E205D8A031D0E20797
:10085800D8A0E307020EE219E311D8A40AD0060EC5
:10086800746FC90E756F7F0E766F000E20EC10F056
:100878001BD0E205E311D8A40AD0060E746FDE0E71
:10088800756F7F0E766F000E20EC10F00DD0E251E0
:10089800E311D8A409D0060E746FD00E756F7F0EC1
:1008A800766F000E20EC10F0000EC36F010EC26FC1
:1008B80082B808D0C205C311D8A404D0000EC36FF3
:1008C800000EC26F030EE219E311D8A40DD0030E77
:1008D80000017B6F080E7A6F770EE82EFED77A2F0D
:1008E800FCD77B2FFAD734D0020EE219E311D8A433
:1008F8000DD0040E00017B6F0C0E7A6F330EE82EBC
:10090800FED77A2FFCD77B2FFAD721D0E205E31147
:10091800D8A40DD0050E00017B6F0F0E7A6FF10E73
:10092800E82EFED77A2FFCD77B2FFAD711D0E251C9
:10093800E311D8A40DD0060E00017B6F130E7A6F59
:10094800AD0EE82EFED77A2FFCD77B2FFAD700D032
:1009580082A015D00001C051C111D8A410D0000E3A
:10096800D56F000ED46FF29A180E6B6F7C0E6C6FF9
:10097800000EA6EC0CF0000EC16F010EC06F82B025
:1009880012000001C005C111D8A41200000EC16FE9
:10099800000EC06F12007AC060F07BC061F0000EDC
:1009A800636F070E626F82EC12F0020E6025D96E3B
:1009B800010E6121DA6EDECF7CF0DDCF7DF07AC0EA
:1009C80060F07BC061F0000E636F070E626F82EC0F
:1009D80012F0040E6025D96E010E6121DA6EDECFA9
:1009E8007EF0DDCF7FF07C517E25806F7D517F21A9
:1009F800816F010E8025846F000E8121856F000EA6
:100A0800876F010E866F1DD07AC060F07BC061F0E1
:100A1800000E636F070E626F82EC12F0000E602505
:100A2800D96E010E6121DA6EDF50836F83C074F0D6
:100A3800FB0E756F7F0E766F865120EC10F0864B9B
:100A4800872B7AC060F07BC061F0000E636F070EE1
:100A5800626F82EC12F0020E6025D96E010E6121E0
:100A6800DA6E8651DE5CDE50800A7E6F8751800A1E
:100A78007E59D8B0C9D77AC060F07BC061F0000E4B
:100A8800636F070E626F82EC12F0020E6025D96E5A
:100A9800010E6121DA6EDECF7CF0DDCF7DF0010E34
:100AA8007C25886F000E7D21896F1BD07AC060F08D
:100AB8007BC061F0000E636F070E626F82EC12F06C
:100AC800000E6025D96E010E6121DA6EDF50826F4B
:100AD80082C06BF0200E6C6F8851A6EC0CF0884B2E
:100AE800892B8451885D8951800A7C6F8551800AE1
:100AF8007C59D8A0DBD784C08AF085C08BF08BBF27
:100B080006D08B5122E1070E8A5DD8B012007AC058
:100B180060F07BC061F0000E636F070E626F82ECBD
:100B280012F0000E6025D96E010E6121DA6EDF50D9
:100B3800836F83C074F0FB0E756F7F0E766F8A51DA
:100B480020EC10F08A4B8B2BDAD712004BEC10F00C
:100B580000EC13F04EEC13F010EC13F065EC06F01B
:100B680004EC07F03EEC11F03FEC13F0960E616FC9
:100B78007F0E626F61EC11F0610E0001616F7F0EF4
:100B8800626F61EC11F0890E0001616F7F0E626F78
:100B980061EC11F00B0E0001A56F260EA46F5D0E1F
:100BA800E82EFED7A42FFCD7A52FFAD700D037EC14
:100BB8000EF00B0E0001A56F260EA46F5D0EE82E39
:100BC800FED7A42FFCD7A52FFAD700D0070E000117
:100BD8006B6F000E6C6F7F0E6D6F000ED5EC0EF014
:100BE80019EC11F0C9EC10F00B0E0001A56F260EE0
:100BF800A46F5D0EE82EFED7A42FFCD7A52FFAD739
:100C080000D098EC0FF0F3EC10F00001D405D511EA
:100C1800D8A40FD0000EBB6EBFEC00F079EC09F041
:100C280095EC07F0D5EC02F0CBEC01F0D6EC03F034
:100C3800ECD7DA51DB11D8A421D082A014D0C0514E
:100C4800C111D8A410D0000ED56F010ED46FF28A4E
:100C5800180E6B6F7D0E6C6F000EA6EC0CF0000E7C
:100C6800C16F010EC06F82B0D0D7C005C111D8A422
:100C7800CCD7000EC16F000EC06FC7D7DA05DB11E5
:100C8800D8A4C3D7F29A070E6B6F000E6C6F7F0E55
:100C98006D6F000ED5EC0EF043BE05D043500BE14E
:100CA8004204D8B008D0D9BF09D0F40ED85D010EDF
:100CB800D959D8A003D054EC0DF0A7D78DEC0DF07E
:100CC800A4D7000E00017D6F000E7C6F7DBF0ED093
:100CD8007D5103E17C05D8A009D07C056B6F000E1F
:100CE8006C6F7F0E6D6F7C05D5EC0EF0070E746F80
:100CF8007C0E756F7F0E766F7C5120EC10F0030E22
:100D080000017B6F080E7A6F770EE82EFED77A2FD8
:100D1800FCD77B2FFAD700017C4B7D2B7DBFD6D724
:100D28007D5104E1080E7C5DD8A0D0D7000E7F6FFE
:100D3800000E7E6F7FBF0ED07F5103E17E05D8A0E5
:100D480009D07E056B6F000E6C6F7F0E6D6F7E0590
:100D5800D5EC0EF0070E746F530E756F7F0E766F1D
:100D68007E5120EC10F0030E00017B6F080E7A6FA5
:100D7800770EE82EFED77A2FFCD77B2FFAD7000103
:100D88007E4B7F2B7FBFD6D77F5104E1060E7E5D59
:100D9800D8A0D0D7000E816F000E806F81BF0ED013
:100DA800815103E18005D8A009D080056B6F000E42
:100DB8006C6F7F0E6D6F8005D5EC0EF0070E746FAB
:100DC8006F0E756F7F0E766F805120EC10F0030E5A
:100DD80000017B6F080E7A6F770EE82EFED77A2F08
:100DE800FCD77B2FFAD70001804B812B81BFD6D748
:100DF800815105E1040E805DD8B01200CFD71200F2
:100E0800000E0001756F000E746F74C060F075C03D
:100E180061F0000E636F070E626F82EC12F0000E35
:100E28006025D96E010E6121DA6E140EDE6E000E99
:100E3800DD6E74C060F075C061F0000E636F070E60
:100E4800626F82EC12F0020E6025D96E010E6121EC
:100E5800DA6E9FEC10F06CC06EF06DC06FF0000E93
:100E6800716F030E706FFFEC0DF0010E6E27000E10
:100E78006F236EC0DEFF6FC0DDFF74C060F075C009
:100E880061F0000E636F070E626F82EC12F0040EC1
:100E98006025D96E010E6121DA6E9FEC10F0010E0B
:100EA8006C17000E6D17010E6C27000E6D236CC0B9
:100EB800DEFF6DC0DDFF74C060F075C061F0000E2C
:100EC800636F070E626F82EC12F0060E6025D96E12
:100ED800010E6121DA6E000EDF6E744B752B75BF43
:100EE80094D7755104E1060E745DD8A08ED7010E13
:100EF8000101066F9FEC10F06CC06EF06DC06FF0D2
:100F0800000E716F0A0E706FFFEC0DF0060E6E2565
:100F1800BC6F000E6F21BD6F000EBB6F000EBA6F65
:100F2800120001011451D8B408D0120E0E190F1175
:100F3800D8A403D0010E0001AC6F0001AC51D8B4A5
:100F48001200A62903E1A729D8B452D0A6C06BF095
:100F58003B0E6C6FA851A6EC0CF0AA51AB11D8A4AB
:100F680019D0A6296B6F200E6C6F020EA6EC0CF040
:100F7800A9BF0DD0A95104E1020EA85DD8A007D0E1
:100F8800A6296B6F200E6C6FA805A6EC0CF0A84B79
:100F9800A92B19D0A6296B6F200E6C6F050EA6EC35
:100FA8000CF0A9BF06D0A9510BE1060EA85DD8B078
:100FB80007D0A6296B6F200E6C6FA829A6EC0CF041
:100FC800A807D8A0A907060EA819A911D8A404D063
:100FD800000EAB6F010EAA6FA805A911D8A404D002
:100FE800000EAB6F000EAA6FA607D8A0A7071200C5
:100FF800000EAC6FAA51AB11D8B408D0000E6B6FBD
:10100800200E6C6FA829A6EC0CF007D0000E6B6FB1
:10101800200E6C6FA805A6EC0CF03FEC13F0120044
:101028006EC072F0736B746B6D35723701E3738148
:101038007251756F7551D8A407D0000E6C6F000EF1
:101048006D6F000E6E6F120071C072F0736B746B6F
:101058007035723701E3738172517A6F7A51D8A46F
:1010680007D0000E6C6F000E6D6F000E6E6F1200D1
:101078007A517B0F75276EC07AF071517A1B800EFA
:101088007A176D8F708FFF0E6F17FF0E7017000E97
:101098007117000E766F000E776F000E786F070ECF
:1010A800796F6CA106D06F517627705177237151F3
:1010B8007823D8906E336D336C33D8906F37703790
:1010C8007137792FEED7090E796F6CA106D06F5161
:1010D80076277051772371517823D8906E336D330A
:1010E8006C33D890783377337633792FEED776C050
:1010F80060F077C061F078C062F075C063F07AC0C4
:1011080064F01DEC0BF060C06CF061C06DF062C063
:101118006EF012000FC013F0146A156A0E341336FD
:1011280001E314801350166E1650D8A407D0000E91
:101138000D6E000E0E6E000E0F6E120012C013F030
:10114800146A156A1134133601E3148013501B6EA8
:101158001B50D8A407D0000E0D6E000E0E6E000EA8
:101168000F6E12001B507B0F16260FC01BF012507B
:101178001B1A800E1B160E8E118EFF0E1016FF0EF8
:101188001116000E1216000E176E000E186E000EC5
:10119800196E070E1A6E0DA006D0105017261150A2
:1011A800182212501922D8900F320E320D32D890D0
:1011B8001036113612361A2EEED7090E1A6E0DA0F9
:1011C80006D0105017261150182212501922D89004
:1011D8000F320E320D32D8901932183217321A2EB9
:1011E800EED717C001F018C002F019C003F016C0FE
:1011F80004F01BC005F074EC0BF001C00DF002C048
:101208000EF003C00FF01200986F000176AF15D0F2
:1012180074C06BF02D0E6C6F9851A6EC0CF0742B0B
:1012280075C060F076C061F0FF0E636F626982EC92
:1012380012F060C075F061C076F0000E9A6F000E73
:10124800996F75517611D8A426D0300E786F994BC6
:101258009A2B21D09951780FD96EDA6A75C06EF041
:1012680076C06FF0000E716F0A0E706FFFEC0DF014
:101278006E51300FDF6E994B9A2B75C060F076C0B7
:1012880061F0000E636F0A0E626F64EC0CF060C0D0
:1012980075F061C076F076BF20D07651DBE1750538
:1012A800D8A01BD0D7D79907D8A09A079951780FFB
:1012B800D96EDA6ADF50776F7751756F766B74C0C5
:1012C8006BF075C06CF09851A6EC0CF0742B7F0E87
:1012D800746503D0982B000E746F9ABF12009A5150
:1012E800E2E19905D8A01200DED79FEC10F0030EBA
:1012F8006C17D8A405D0DD51D8A402D0010EB36F65
:10130800B351D8B41200AD2903E1AE29D8B44ED0F8
:10131800BAC060F0BBC061F0000E636F070E626F69
:1013280082EC12F0000E6025D96E010E6121DA6E92
:10133800AD51DE1808E1AE51DE18D8A404D0000E75
:10134800B76F010EB66FB151B211D8A416D0B6510D
:10135800B711D8A40AD0ADC074F0F50E756F7F0E22
:10136800766FAF5120EC10F01DD0ADC06BF0240E9D
:101378006C6FAF51A6EC0CF015D0B651B711D8A4CC
:101388000AD0ADC074F0F80E756F7F0E766FAF514E
:1013980020EC10F007D0ADC06BF03E0E6C6FAF5173
:1013A800A6EC0CF0AD07D8A0AE071200000E6B6FCC
:1013B800200E6C6FAF51A6EC0CF03EEC11F0120051
:1013C8007DC07FF0806B816B7C357F3701E3808146
:1013D8007F51896F8951D8A409D0000E7B6F000E08
:1013E8007C6F000E7D6F000E7E6F1200170E7F6FF0
:1013F8007BC080F07CC081F07DC082F07F29836F44
:1014080004D0D890823381338033832FFAD70001F8
:101418008051846F7C8FFF0E7B17FF0E7C17000EA8
:101428007D177B51856F7C51866F7D51876F886BE7
:101438008E0E895F89AF0DD08951800A8F0FD8A091
:10144800CCD7D8908833873386338533893FF9D70B
:101458000DD0170E896507D0C0D7D8908537863745
:101468008737883789078951D8A4F7D78451D8B4E2
:1014780008D0881F871F861F856D000E8623872347
:10148800882385C07BF086C07CF087C07DF088C04B
:101498007EF012001EC020F0216A226A1D34203618
:1014A80001E3218020502A6E2A50D8A409D0000ECA
:1014B8001C6E000E1D6E000E1E6E000E1F6E1200BA
:1014C800170E206E1CC021F01DC022F01EC023F094
:1014D8002028246E04D0D890233222322132242EA0
:1014E800FAD72150256E1D8EFF0E1C16FF0E1D16F5
:1014F800000E1E161C50266E1D50276E1E50286E9C
:10150800296A8E0E2A5E2AAE0DD02A50800A8F0FC5
:10151800D8A0CDD7D89029322832273226322A3E71
:10152800F9D70DD0170E2A6407D0C1D7D890263620
:101538002736283629362A062A50D8A4F7D7255020
:10154800D8B408D0291E281E271E266C000E272274
:101558002822292226C01CF027C01DF028C01EF012
:1015680029C01FF01200C30E106ED50E116E3F0E6B
:10157800126E36C009F037C00AF019EC12F009C033
:101588000DF00AC00EF00BC00FF08EEC08F00DC085
:101598001CF00EC01DF00FC01EF04EEC0AF01CC06F
:1015A8002BF01DC02CF01AD02B500B0F106E3B0ED9
:1015B80037EC0FF02B500B0F106E3C0E37EC0FF082
:1015C8002B500B0F106E3E0E37EC0FF02B500B0FFD
:1015D800106E3F0E37EC0FF02B4A2C2AC30E106EFC
:1015E800D50E116E3F0E126E38C009F039C00AF0E0
:1015F80019EC12F009C00DF00AC00EF00BC00FF084
:101608008EEC08F00DC01CF00EC01DF00FC01EF0CF
:101618002BC009F02CC00AF019EC12F009C01FF019
:101628000AC020F00BC021F0E1EC0CF0D8A01200A9
:10163800BBD76351D8B405D0605161116211D8A4E9
:101648000CD0000E606F000E616F000E626F12000A
:10165800632BD890623361336033000E6015656F79
:10166800000E6115666FFE0E6215676F6551661193
:101678006711D8B40CD0ECD7632B010E6027000E8D
:101688006123000E6223D890623361336033000E09
:101698006015656F000E6115666FFF0E6215676F46
:1016A800655166116711D8B406D0E6D76307D8909C
:1016B80060376137623761BF03D0020E6361F6D7C6
:1016C80063A1619FD8906333635162136451D8A4B6
:1016D800628F60C060F061C061F062C062F01200A9
:1016E8000450D8B405D0015002100310D8A40CD06F
:1016F800000E016E000E026E000E036E1200042A28
:10170800D890033202320132000E0114066E000E28
:101718000214076EFE0E0314086E06500710081018
:10172800D8B40CD0ECD7042A010E0126000E0222F0
:10173800000E0322D890033202320132000E011447
:10174800066E000E0214076EFF0E0314086E065094
:1017580007100810D8B406D0E6D70406D89001368A
:101768000236033602BE03D0020E0460F6D704A088
:10177800029ED8900432045003120550D8A4038E58
:1017880001C001F002C002F003C003F01200030E12
:1017980042184310D8A416D0000E6B6F250E6C6F3C
:1017A800000EA6EC0CF0020E6B6F250E6C6F000E8F
:1017B800A6EC0CF0040E6B6F250E6C6F000EA6ECF9
:1017C8000CF01200020E42184310D8A416D0000ED6
:1017D8006B6F250E6C6F000EA6EC0CF0020E6B6F93
:1017E800250E6C6F000EA6EC0CF0040E6B6F200E2D
:1017F8006C6F000EA6EC0CF0120042044310D8A443
:101808001200000E6B6F250E6C6F000EA6EC0CF02C
:10181800020E6B6F200E6C6F000EA6EC0CF0040E1F
:101828006B6F200E6C6F000EA6EC0CF01200FE0E13
:101838006F6FD40E706F3D0E716FD8C068F0D9C04D
:1018480069F0E1EC11F068C06CF069C06DF06AC035
:101858006EF014EC08F06CC07BF06DC07CF06EC0CC
:101868007DF0E4EC09F07BC08AF07CC08BF01FD0DF
:10187800780E6F6F8A513C08A2EC0EF0790E0001C9
:101888006F6F8A513C08A2EC0EF07B0E00016F6F5F
:101898008A513C08A2EC0EF07C0E00016F6F8A5151
:1018A8003C08A2EC0EF000018A07D8A08B078AC07A
:1018B80068F08BC069F0E1EC11F06ABF1200D8D76C
:1018C800000E656F63AF06D0626D631FD8B0632BDF
:1018D800010E656F61AF06D0606D611FD8B0612BD6
:1018E800010E651B000E676F000E666F6251631173
:1018F800D8B41CD0010E646F04D0D8906237633717
:10190800642B63AFFAD7D890663767376251605D4A
:1019180063516159D8A005D06251605F6351615B22
:101928006681D89063336233642FEDD76551D8B49C
:1019380004D0666D671FD8B0672B66C060F067C0BB
:1019480061F012006D6FE00E00016C25606F616B35
:10195800FF0E6123000E636F050E626F82EC12F0BA
:1019680060C070F061C071F06B51050DF3CF6BF082
:10197800000E736F000E726F450E7025F66E7D0EA9
:101988007121F76E0800F5506E6F6F6B6BC065F0D4
:101998006EC066F06D5106EC0FF000016B2B704BBA
:1019A800712B724B732B73BFE7D7735105E1050E8B
:1019B800725DD8B01200E0D712001EAE0FD0000E34
:1019C800226E000E236E800E246E1C50225C1C6E4C
:1019D8001D5023581D6E1E5024581E6E21AE0FD068
:1019E800000E226E000E236E800E246E1F50225CA5
:1019F8001F6E20502358206E21502458216E000E4F
:101A08001C1A000E1D1A800E1E1A000E1F1A000E38
:101A1800201A800E211A1F501C5C20501D5821507E
:101A28001E58D8B002D0D8901200D8801200D60E16
:101A3800F66E260EF76E000EF86E00EEDEF010EE73
:101A480014F00900F5CFEEFFE550E150FAE1020E7F
:101A5800F66E270EF76E000EF86E00EE40F010EEF0
:101A680004F00900F5CFEEFFE550E150FAE101EE90
:101A780000F02A0EEE6AE806FDE100EEA6F0380E48
:101A8800EE6AE806FDE100EE34F00C0EEE6AE806B8
:101A9800FDE144904492000EF86E0001AAEF05F0B3
:101AA800000E7D6F000E7C6F7DBF0ED07D5103E16F
:101AB8007C05D8A009D07C056B6F000E6C6F7F0E7B
:101AC8006D6F7C05D5EC0EF0080E746FA30E756F64
:101AD8007F0E766F7C5120EC10F0030E00017B6FB7
:101AE800080E7A6F770EE82EFED77A2FFCD77B2F59
:101AF800FAD700017C4B7D2B7DBFD6D77D5104E101
:101B0800040E7C5DD8A0D0D7000EDB6F020EDA6F12
:101B18001200000E7D6F000E7C6F7DBF0ED07D51D0
:101B280003E17C05D8A009D07C056B6F000E6C6FB3
:101B38007F0E6D6F7C05D5EC0EF0090E746FAF0E3D
:101B4800756F7F0E766F7C5120EC10F0030E00014C
:101B58007B6F080E7A6F770EE82EFED77A2FFCD7A8
:101B68007B2FFAD700017C4B7D2B7DBFD6D77D51CB
:101B780004E1040E7C5DD8A0D0D7000EDB6F020E06
:101B8800DA6F1200106EE00E0D24016E026AFF0E6D
:101B98000222000E046E050E036EA8EC12F001C0BE
:101BA80011F002C012F00C50050DF3CF0CF0000E2E
:101BB800146E000E136E450E1124F66E7D0E122063
:101BC800F76E0800F5500E6E0F6A0CC006F00EC0D6
:101BD80007F01050C7EC0FF00C2A114A122A134ACA
:101BE800142A14BEE8D7145005E1050E135CD8B0CA
:101BF8001200E1D71200000E736F6FAF06D06E6D42
:101C08006F1FD8B06F2B010E736F71AF04D0706D5A
:101C1800711FD8B0712B70517111D8B418D0010E42
:101C2800726F04D0D89070377137722B71AFFAD7B2
:101C380070516E5D71516F59D8A004D070516E5FAC
:101C480071516F5BD89071337033722FF1D7735124
:101C5800D8B404D06E6D6F1FD8B06F2B6EC06EF005
:101C68006FC06FF01200000E00016E6F000E6D6FF6
:101C7800000E706F000E6F6F000E726F000E716FA6
:101C8800450E6D25F66E790E6E21F76E0800F5503B
:101C98006B6F6C6B71C065F06BC066F06F5106ECD2
:101CA8000FF000016D4B6E2B714B722B72BFE8D792
:101CB800725104E1800E715DD8A0E2D76F4B702B92
:101CC80070BFDAD7705105E1080E6F5DD8B0120009
:101CD800D3D71200676F400E0001656104D0000E73
:101CE8006A6F010E03D0000E6A6F020E696F69C039
:101CF8006BF06651D8B407D0675120EC13F000019F
:101D08006551A4EC11F000016B5150EC12F095688C
:101D1800000E936E6B05D8B48190020E6B19D8B47F
:101D280081928186818400F0818800F083CF68F0F9
:101D3800819881808182000168511200776F77C095
:101D480070F00001D8907033D8907033D890703309
:101D58007051786F796B77C070F0070E7017010EAD
:101D6800716F000E726F702B03D0D8907137723775
:101D7800702FFBD771C073F072C074F06FC06CF035
:101D88000001785195EC12F0706F7051756F766B99
:101D98006FC065F073517511666F785106EC0FF0DE
:101DA8001200716F71C072F00001736B1DD06CC0AE
:101DB80074F0756B0AD074C065F0000E666F7251CE
:101DC80006EC0FF00001744B752B6D516E6F6F6B45
:101DD80074516E5D6F51800A706F7551800A705929
:101DE800D8B0E9D7724B732B6B516E6F6F6B725112
:101DF8006E5D6F51800A706F7351800A7059D8A058
:101E08001200D5D7676F400E0001656104D0000E3F
:101E1800696F010E03D0000E696F020E686F68C00B
:101E28006AF0675120EC13F000016551A4EC11F041
:101E380000016A5150EC12F0000E936E6A05D8B496
:101E48008190020E6A19D8B481928196818400F03B
:101E5800818800F066C083FF000E956E00F08198BF
:101E68008180818212001A6E1AC011F0D890113246
:101E7800D8901132D89011321150186E196A1AC0C0
:101E880011F0070E1116010E126E000E136E112AB4
:101E980003D0D89012361336112EFBD712C014F087
:101EA80013C015F010C00DF01850BBEC12F0116EF5
:101EB8001150166E176A10C006F014501610076EEF
:101EC8001850C7EC0FF01200086E400E066004D0E0
:101ED800000E0A6E010E03D0000E0A6E020E096E85
:101EE80009C00CF00750D8B406D008505DEC13F0C8
:101EF8000650C4EC11F00C506AEC12F09568000E14
:101F0800936E0C04D8B48190020E0C18D8B4819248
:101F18008186818400F0818800F083CF0BF081985E
:101F2800818081820B50120012D00001D251D3114E
:101F3800D8A409D0010E746F3B0E756F7F0E766FB3
:101F4800060E20EC10F0000ED36F010ED26F82A0A7
:101F5800ECD7000E0001C16F010EC06F060E6B6F4B
:101F6800000E6C6F780E6D6F060ED5EC0EF0180E25
:101F78006B6F7D0E6C6F000EA6EC0CF0000ED56F2B
:101F8800010ED46F1200086E400E066004D0000ED9
:101F98000A6E010E03D0000E0A6E020E096E09C009
:101FA8000BF008505DEC13F00650C4EC11F00B5028
:101FB8006AEC12F0000E936E0B04D8B48190020EF6
:101FC8000B18D8B481928196818400F0818800F042
:101FD80007C083FF000E956E00F081988180818292
:101FE8001200000E686F000E696F000E6A6F000E17
:101FF8006B6F60A108D064516827655169236651E9
:102008006A2367516B23D89064376537663767371B
:10201800D890633362336133603360516111621168
:102028006311D8A4E6D768C060F069C061F06AC0DF
:1020380062F06BC063F01200776F000E0001796FD9
:10204800000E786F11D0745178256B6F75C0F6FF4C
:1020580076C0F7FF0800F5CF6CF07751A6EC0CF0CE
:10206800754B762B784B792B75C0F6FF76C0F7FF4A
:102078000800F5500A0AD8B4120075C0F6FF76C0F9
:10208800F7FF0800F5500009D8B41200DCD7030E9A
:102098000F01386F000E396F000E3A6F000E3B6F5C
:1020A8009268000E936E970E946E000E956E000E59
:1020B800806E000E816E000E826E000E836ED09EC2
:1020C800F28EB886240EAC6E000EAD6E100EAF6E9A
:1020D800948C9D889E98AB8EAB88AB9C9D8A9D8A7C
:1020E80012004206D8A0430642504310D8A409D093
:1020F800000ED56F000ED46F000EDB6F010EDA6F85
:1021080012007D0EBB6E3AC06BF0200E6C6F405013
:10211800A6EC0CF0000E3B6E000E3A6E000E416EFF
:10212800030E406E010EDC6F38C0BEF039C0BFF040
:10213800CBEC0BF01200DEC060F0DFC061F0E0C055
:1021480062F0E1C063F06D0E0001646F4E0E656FC2
:10215800C60E666F410E676FF5EC0FF060C0DEF0DB
:1021680061C0DFF062C0E0F063C0E1F0390EDE2745
:10217800300EDF23000EE023000EE123FF0EE015F2
:102188006C6F7F0EE1156D6F1200000E7B6F0B0EEA
:102198007A6F7AC06FF03D0EA2EC0EF000017A4B18
:1021A8007B2B7BBFF6D77B5104E1700E7A5DD8A0FC
:1021B800F0D7000E7D6F080E7C6F7A0E6F6F7C5122
:1021C800A2EC0EF000017C4B7D2B7DBFF6D77D5134
:1021D80005E13D0E7C5DD8B01200EFD71200D59C0A
:1021E800D59AD596D550F80B0509D56E850ED76EBC
:1021F800ED0ED66ED58EF294F28A9494780EBA12B9
:10220800BA84BA50FC0B0109BA6EFC0E0F014917CB
:10221800CF0EBD16BD50F00B0C09BD6E000EBB6E87
:102228007D0EBE6E9E929D821200CBEC0BF00E0EC0
:10223800746FBA0E756F7F0E766F000E20EC10F07B
:10224800140E746FD8C075F0D9C076F0000E08EC83
:1022580009F0060E746FDE0E756F7F0E766F000E36
:1022680020EC10F0180E6B6F7C0E6C6F000EA6EC55
:102278000CF01200000EAE6F140EAD6F9FEC10F054
:102288006CC06EF06DC06FF0000E716F060E706F4F
:10229800FFEC0DF0010E6E25AF6F000E6F21B06FD1
:1022A800000EB36F9FEC10F0010E6C15B16FB26B9E
:1022B800000EB76F000EB66F12000BD061C0F6FFAC
:1022C80062C0F7FF0800F55075EC13F00001614B90
:1022D800622B61C0F6FF62C0F7FF0800F5500A0ADA
:1022E800D8B409D061C0F6FF62C0F7FF0800F55006
:1022F8000009D8A4E3D70A0E75EC13F012000AD02F
:1023080002C0F6FF03C0F7FF0800F5507BEC13F09E
:10231800024A032A02C0F6FF03C0F7FF0800F5507F
:102328000A0AD8B409D002C0F6FF03C0F7FF0800B4
:10233800F5500009D8A4E4D70A0E7BEC13F012007C
:10234800646F400E000164610DD0010E626F64512C
:102358004009FDEC11F0020E0001626F400EFDEC29
:1023680011F01200010E626F7F0EFDEC11F0020EEB
:102378000001626F6451C00F4009FDEC11F01200BA
:10238800056E400E05600CD0010E036E0550400925
:1023980035EC12F0020E036E400E35EC12F012000E
:1023A800010E036E7F0E35EC12F0020E036E05501F
:1023B800C00F400935EC12F01200000E6B6F69AFC8
:1023C80006D0686D691FD8B0692B010E6B6F68C0A5
:1023D80060F069C061F0626B8E0E636F6BC064F071
:1023E8001DEC0BF060C068F061C069F062C06AF073
:1023F8001200636F0001625150EC12F0000E936EF0
:102408006205D8B48190020E6219D8B4819281967F
:10241800819400F0818800F063C083FF000E956E00
:1024280000F08198818081821200000E0C6E0AAE45
:1024380006D0096C0A1ED8B00A2A010E0C6E09C013
:1024480001F00AC002F0036A8E0E046E0CC005F09B
:1024580074EC0BF001C009F002C00AF003C00BF0E5
:102468001200046E03506AEC12F0000E936E03041F
:10247800D8B48190020E0318D8B4819281968194C1
:1024880000F0818800F004C083FF000E956E00F014
:102498008198818081821200616F9568000E936E29
:1024A80000016105D8B48190020E6119D8B48192F7
:1024B8008186819400F0818800F083CF60F0819854
:1024C800000160BFF8D7818081821200026E956892
:1024D800000E936E0204D8B48190020E0218D8B48C
:1024E80081928186819400F0818800F083CF01F089
:1024F800819801BEF9D78180818212006051620300
:10250800F3CF64F0F4CF65F060516303F3506527AF
:1025180061516203F350652764C060F065C061F0E3
:1025280012006E6F6CC065F0010E0001666F6E518F
:102538006EEC0EF06CC065F0010E666F6E516EECBD
:102548000EF06D6F6D51120001500302F3CF05F0CC
:10255800F4CF06F001500402F3500626025003029D
:10256800F350062605C001F006C002F012000F6EF7
:102578000DC006F0010E076E0F5068EC0FF00DC08D
:1025880006F0010E076E0F5068EC0FF00E6E0E503D
:102598001200C250830B0409C26EC282C2B2FED7B7
:1025A800C450636F626BC3506225606F000E632175
:1025B800616F1200818A010E0001626F3F0EFDEC0F
:1025C80011F0020E0001626F3F0EFDEC11F0000EDB
:1025D800EFEC12F012000001646F010E0001626F4F
:1025E8006451C009FDEC11F0020E0001626F6451E4
:1025F800C009FDEC11F01200DEEC12F0070E00012C
:102608006B6F000E6C6F7F0E6D6F000ED5EC0EF0C9
:10261800000EEFEC12F01200C19EF30EC116FC0E74
:10262800C116C08EC050C70B2809C06EC050F80B29
:102638000109C06EC2801200646F010E0001626F52
:102648006451B809FDEC11F0020E0001626F64518B
:10265800B809FDEC11F01200830EC216C282C2B294
:10266800FED7C450636F626BC3506225606F000E63
:102678006321616F1200000EA76F140EA66F000E83
:10268800A96F010EA86F000EAB6F000EAA6F000EA7
:10269800AC6F1200D3508F0B5009D36E948E948C6C
:1026A800100EAF6E000EB06EAC84B886AB8EAB88E1
:1026B8001200056E010E036E0550B80935EC12F0D4
:1026C800020E036E0550B80935EC12F01200010035
:1026D800000001003B7FAF7FA37FBA7F6F7F537FEE
:1026E8007C7F606F9EA8FED760C0ADFF1200016EB0
:0E26F8009EA8FED701C0ADFF12000300030034
:107944000000000000000000000080C0E0E0E0E073
:10795400E0E0C080C0E0E0E0E0E06040004070783B
:107964007C7E706040000000000000000000000009
:1079740000000001FE00000000FD02000000000005
:107984000000000003FD0000000000FE01000000F4
:1079940000000000000000000000000000000000E3
:1079A40000000000000080C0F0F8F8FC7C7C7CFE45
:1079B400FEFEFE7C7C7CF8F8F0C080000000000035
:1079C40000000000000000008000879F3F7FFFFF51
:1079D400FFFFFFFBFBFDFDFEFE7E3F1F0F070000C8
:1079E4000000000000000020404040404040E0E033
:1079F400E0E0E0FF3FBFB0B0B0BFBFB0B0B0BFBFCA
:107A0400B0B0B0B0BFBFB0B0B0B03FFFFF707070E7
:107A140070202020202020201008000000000000FA
:107A24000000000000F8FFFFFFFFFFF0E0E2E0F0DD
:107A3400FFFFF0E0E4E0F0FFFFFFFFFE00000000C6
:107A440000000000080C0E0F0F0F0D0800000001CD
:107A540003070F1F0F0703010000000000000000D0
:107A640000000000000000001008080808081C1CA2
:107A74001C1CFFFF00FF0F0FCFCF0F1FFFFF0909D3
:107A8400FFFF3F1FCFCFCFCF9FFF00FFFF8E8E8E14
:107A94008E04040404040408000000000000000034
:107AA4000000000000FFFFFFFFFFF9F3E7F9FCF31C
:107AB400E7F3FCF9E7F3F9FFFFFFFFFF0000000025
:107AC40000000000000000000000000000000000B2
:107AD40000000000000000000000000000000000A2
:107AE4000000000000000000010101818182828207
:107AF400C7C7FFFF00FFF0F0FCFCFCFEFFFFF0F047
:107B0400FFFFFCF8F3F3F3F3F9FF00FFFFE3E3E314
:107B1400E341414141414181010000000000000076
:107B240000000000003F1F0F1F3F3F3F0F0F1F3F8C
:107B34001F0F070F1F3F1F0F07070F1F0000000035
:107B44000000000000C0E0F070783C1C1C1E0E0E0B
:107B54000ECE0E0E1E1C1C3C7870F0E0C00000001F
:107B6400000000000000000000002121203010105F
:107B740031317FFFF0F7373737F7F7373737F7F714
:107B840037373737F7F737373737F0FFFF18181815
:107B94001808080808080810100000000000000079
:107BA4000000000080E0F0F8783C1C0E0E0F070780
:107BB400070707070F0E0E1C3C78F8F0E080000062
:107BC4000000F0FEFF0F03010000003C7E7EFFE793
:107BD400E7FFE7EFEECE8C00000001030FFFFEF09D
:107BE4000000000000000000000000000000000091
:107BF400000000C13F010000003F410000000101FE
:107C040000000000417F00000000017F81000000AF
:107C14000000000000000000000000000000000060
:107C24000000F8FFFF0F01000000A0A0F8FCFEBE5A
:107C3400AEA6A60E0C000000000000010FFFFFF826
:107C44000000073F7FF8E0C00000001C3C3C3C38CB
:107C540038FF39393F1F0F070000C0E0F87F3F07A6
:107C64000080402090402000387CEEC6C28282868C
:107C740006040000FEFE0000000000F6F60000E02E
:107C8400F030101030FEFE0000C0E030101030F074
:107C9400E00000F0F06010103030002040902040F0
:107CA40080000F3F7FFCE0C080000000070F1F1F13
:107CB4001C18181C0C0000000000C0E0FC7F3F07EB
:107CC40000000000000103070F0F1E1C1C3C383885
:107CD400383938383C1C1C1E0F0F07030100000004
:107CE4000102040912040800181830302020313130
:107CF4001F0F00001F3F30202000003F3F00001FE7
:107D04003F302030103F3F00000F1F322222223329
:107D14001300003F3F0000000000000804120904A3
:107D24000201000000010307070F1E1C1C3C383829
:107D3400383838383C1C1C1E0F07070301000000AC
:107D440000000000000000005F00000007000700C2
:107D5400087A1D7A08242A7F2A121C3E7C3E1C368F
:107D6400495522500005030000001C224100004137
:107D7400221C003E3E3E3E3E0000FF00000050300C
:107D8400000008080808080030300000FFFFFFFF6B
:107D9400FF3E5149453E00427F4000426151494601
:107DA4002141454B311814127F1027454545393C74
:107DB4004A4949300171090503364949493606499A
:107DC40049291E00363600007E3B7F3B7E1C3E7CEC
:107DD4003E1C14141414141C365555410201510947
:107DE40006FFD5ABD5FF7E1111117E7F4949493677
:107DF4003E414141227F4141221C7F494949417F03
:107E0400090901013E414151327F0808087F0041C0
:107E14007F41002040413F017F081422417F4040C0
:107E240040407F0204027F7F0408107F3E414141AD
:107E34003E7F090909063E4151215E7F0919294601
:107E4400464949493101017F01013F4040403F1FFC
:107E54002040201F7F2018207F631408146303042C
:107E6400780403615149454300007F4141020408FD
:107E7400102041417F0000040201020440404040C0
:107E840040000102040020545454787F484444388C
:107E94003844444420384444487F385454541808DF
:107EA4007E090102081454543C7F080404780044F9
:107EB4007D40002040443D00007F10284400417F65
:107EC40040007C041804787C080404783844444452
:107ED400387C14141408081414187C7C080404084E
:107EE4004854545420043F4440203C4040207C1CCF
:107EF4002040201C3C4030403C44281028440C5076
:107F040050503C4464544C440008364100007F0007
:107F14007F007F3E3E1C0808082A1C08081C2A080B
:107F2400080801AA010800383838000000000000E1
:107F3400000000000023255072657373204B2062FB
:107F44007574746F6E20746F20737461727400465C
:107F5400656979616E672057616E670A00466569D5
:107F640079616E672057616E670D004C372050723F
:107F74006F6A656374650A00427275204265726EA9
:107F84006164690A004C372050726F6A65637465D6
:107F94000D00427275204265726E6164690D00596C
:107FA4006F752057696E2121210A0047616D652094
:107FB4004F7665720A0053636F72653D0A00526919
:107FC4006768740D004841524420200045415359CC
:107FD400202000494E53414E45004D454449554DDE
:107FE40000446F776E0D004C6566740D0055700D7E
:0B7FF400002420003E20004020000080
:020000040030CA
:0E000000FF021900FFA580FF0FC00FE00F40A8
:00000001FF
